S31508000000F0C801206D020008916E0008114500082D
S31508000010575B0008F5120008B18F000800000000C1
S31508000020000000000000000000000000AD0100080C
S31508000030DD1800080000000009020008A97F000872
S315080000408702000887020008870200084571000831
S315080000508702000887020008F918000887020008C6
S31508000060870200088702000887020008870200083E
S31508000070870200088702000887020008870200082E
S3150800008087020008870200088702000800000000AF
S3150800009000000000000000000000000087020008C1
S315080000A0870200088702000869800008870200089E
S315080000B087020008870200088702000887020008EE
S315080000C087020008870200088702000887020008DE
S315080000D087020008658E00088702000800000000F5
S315080000E0870200088702000887020008000000004F
S315080000F00000000000000000000000008702000861
S31508000100000000008702000887020008870200082E
S3150800011000000000000000000000000000000000D1
S3150800012087020008E5160008F1160008870200088D
S315080001308702000800000000000000000000000020
S315080001400000000000000000000000008702000810
S31508000150FD1600080917000815170008A58E0008DF
S31508000160870200088702000800000000000000005F
S315080001700000000000000000000000000000000071
S3150800018000000000870200080000000000000000D0
S315080001908702000887020008DFF80CD000F008FD87
S315080001A000480047CD740208F0C801202C4B196896
S315080001B00868B0E8F04F80F30988BFF36F8F4FF0F7
S315080001C0000080F3118870470000000008480068A6
S315080001D0006880F308884FF0000080F3148862B640
S315080001E061B6BFF34F8FBFF36F8F00DF00BF00BF4D
S315080001F008ED00E0DFF80C00016841F470010160C9
S31508000200704700BF88ED00E0EFF30980BFF36F8FFA
S31508000210134B1A681EF0100F08BF20ED108A20E94C
S31508000220F04F106009B44FF0500080F31188BFF307
S315080002304F8FBFF36F8F2FF0E7F94FF0000080F371
S31508000240118809BC19680868B0E8F04F1EF0100F4D
S3150800025008BFB0EC108A80F30988BFF36F8F704728
S315080002607C020020EFF305807047000006488047AF
S3150800027006480047FEE7FEE7FEE7FEE7FEE7FEE77D
S31508000280FEE7FEE7FEE7FEE7598000089901000849
S315080002902DE9F05F0546002092469B4688460646AD
S315080002A0814640241BE0284641464746224600F040
S315080002B010FB53465A46C01A914110D311461846A8
S315080002C0224600F0F7FA2D1A67EB01084F46224638
S315080002D00120002100F0EEFA17EB00094E41201E1E
S315080002E0A4F10104DFDC484631462A464346BDE808
S315080002F0F09F000000487047043105080649074A80
S315080003000868504343F239021044086040087047B1
S3150800031001490860704700007C0900206D4EC641FF
S3150800032010B5431A934209D28318881803E010F8C7
S31508000330011D03F8011D521EF9D210BD40EA010342
S315080003409B0703D009E008C9121F08C0042AFAD27D
S3150800035003E011F8013B00F8013B521EF9D210BD2B
S31508000360D2B201E000F8012B491EFBD270470022E9
S31508000370F6E710B513460A4604461946FFF7F0FF96
S31508000380204610BD421E12F8013F002BFBD111F882
S31508000390013B02F8013B002BF9D17047421C10F8CB
S315080003A0011B0029FBD1801A704710B5002200E016
S315080003B0521C835C8C5CA34201D1002BF8D1D8B2C5
S315080003C0E1B2401A10BD30B504460020034600E0ED
S315080003D05B1C934203D2E05CCD5C401BF8D030BD79
S315080003E0034611F8012B00F8012B002AF9D118460B
S315080003F0704770B5064608F05DFF046805460A2290
S315080004000021304600F087FA2C6070BD2DE9FE4FBA
S31508000410804681EA0300C00F0C46009021F0004197
S3150800042023F00045B8EB0200A94105D24046214613
S3150800043090461C460B46024623F00040104347D020
S31508000440270DC7F30A00C3F30A510290401A019018
S3150800045040286BDAC3F3130040F4801B00989246D9
S3150800046020B10023D2EB030A63EB0B0B0198594624
S31508000470C0F14002504600F01DFA06460D465046A9
S315080004805946019A00F035FA10EB0800614100243C
S3150800049087EA115284EAE7731A4340D0009A62B396
S315080004A0019A012A4FEA075215DC001B61EB02018B
S315080004B04FF0004202EA0752CDE90042001C41F51E
S315080004C0801132462B4600F0A4FA03B0BDE8F08F3F
S315080004D040462146F9E7001B61EB0201001C41F585
S315080004E0801300185B412018A2F5001747EB03019B
S315080004F040EAD570B6196D4111E06D084FEA360627
S3150800050045EAC0754FEA0752001B61EB0201001C61
S3150800051041F5801149084FEA300000195141324629
S315080005202B4603B0BDE8F04F00F064BA00980122EC
S3150800053040000023D0EB020263EBE07300982146EB
S315080005404FEAE074B8EB000061EB0401E9E783F0D9
S3150800055000435BE781F0004158E72DE9FE4F81EA49
S31508000560030404F0004421F0004100944FF0000B0E
S3150800057023F0004350EA01045ED052EA03045BD03C
S31508000580C3F30A54C1F30A552C44A4F2F334019474
S31508000590A0FB0254C1F3130141F48011C3F3130302
S315080005A043F4801301FB024400FB034E840A970AB6
S315080005B044EA815447EA8357A4FB076802958D0AE3
S315080005C005FB07854FEA932C04FB0C542705029D6F
S315080005D04FEA065847EA1637B5EB08056EEB070CDF
S315080005E0870E920E47EA811742EA8312A7FB020199
S315080005F0B6EB0B0164EB00042B0D43EA0C335E18D3
S3150800060044EB1C50DA465146E7FB0201C5F31304D6
S315080006104FEA0B3343EA14534FEA0432019C43EA88
S315080006200603A4F10C040294009CCDE900B400F082
S31508000630F0F903B0BDE8F08F00200146F9E72DE98F
S31508000640F04D81EA030404F0004B21F000451446FE
S315080006504FF0000A23F0004150EA050220D054EA80
S3150800066001021DD0C5F30A570246C5F31303C1F3A9
S315080006701300C1F30A5640F4801543F48013A7EB20
S315080006800608101BD64608F2FD3873EB050002D3A0
S3150800069008F1010801E092185B41B8F1000F03DA8E
S315080006A000200146BDE8F08D00204FF48011064673
S315080006B084460EE0171B73EB050705D3121B63EB85
S315080006C0050306434CEA010C49084FEA3000921824
S315080006D05B4150EA0107EDD152EA030012D082EAE3
S315080006E0040083EA0501084305D0101BAB4106D276
S315080006F00122002306E000224FF0004302E06FF0DB
S31508000700010253101AEB06004CEB085110EB0A00D5
S3150800071041EB0B01BDE8F04D00F06CB90EB5C10F09
S3150800072080EAE0700844CA07002140F233438DE8A6
S315080007300E000A460B4600F06CF903B000BD0EB574
S3150800074040F2334102910021CDE900110A460B46D9
S3150800075000F05FF903B000BD70B5C1F30A5201F0AD
S3150800076000450024C1F3130140F2FF3341F4801120
S315080007709A4201DA002070BD40F233439A42A2F24F
S31508000780334203DC524200F0A4F800E090402C43C8
S31508000790F1D0404270BDC1F30A5210B5C1F313013E
S315080007A040F2FF3341F480119A4201DA002010BD6D
S315080007B040F233439A42A2F2334203DC524200F03B
S315080007C088F810BD904010BD00F0004230F000409F
S315080007D00AD0C10D01F56071C0F3160042EA015155
S315080007E0C2084007114370470020014670470000C1
S315080007F030B5041E71F1000404DB4FF0004440429A
S3150800080064EB0101141E73F1000405DB1C464FF06E
S315080008100043524263EB04038B4208BF824230BD59
S3150800082030B5041E71F1000404DB4FF00044404269
S3150800083064EB0101141E73F1000405DB1C464FF03E
S315080008400043524263EB0403994208BF904230BD0D
S3150800085001F0004330B421F0004150EA010206D00D
S315080008600A0DA2F56072C1F31301002A02DC30BC3E
S3150800087000207047440F44EAC104C100E01830BCA8
S3150800088000EBC25000F07FB830B50B460146002099
S315080008902022012409E021FA02F59D4205D303FA34
S315080008A002F5491B04FA02F52844151EA2F10102B5
S315080008B0F1DC30BD202A04DB203A00FA02F10020E0
S315080008C070479140C2F1200320FA03F31943904080
S315080008D07047202A04DB203A21FA02F000217047EB
S315080008E021FA02F3D040C2F120029140084319468A
S315080008F07047202A06DBCB17203A41FA02F043EA72
S31508000900E07306E041FA02F3D040C2F120029140BA
S315080009100843194670472DE9F04791460F46804629
S315080009200446002614F8015B2DB1FFF7E3FC0068C6
S31508000930405DC007F6D12B2D02D02D2D18D0641E90
S315080009404A463946204600F045F927B13968A1429A
S3150800095001D1C7F8008071054FF002040BD540425B
S31508000960002803DD08F0A6FC0460A007BDE8F087B0
S3150800097046F48066E4E70028F8DA08F09BFC046091
S315080009806FF00040F2E70029A8BF7047401C4900F5
S3150800099008BF20F00100704710B4B0FA80FC00FAD6
S315080009A00CF050EA010404BF10BC704749B1CCF101
S315080009B0200421FA04F411FA0CF118BF012121438D
S315080009C00843A3EB0C01CB1D4FEA00614FEA102048
S315080009D042BF002010BC704700EBC35010440029EA
S315080009E0A4BF10BC7047401C490008BF20F0010096
S315080009F010BC704710B5141E73F1000408DA401CC9
S31508000A0041F1000192185B411A4301D120F001001F
S31508000A1010BD2DE9F04D92469B4611B1B1FA81F20F
S31508000A2002E0B0FA80F220329046FFF743FF044610
S31508000A300F4640EA0A0041EA0B0153465A46084364
S31508000A4013D0114653EA010019D0C8F140025046A6
S31508000A50FFF73FFF05460E46504659464246FFF702
S31508000A6029FF084305D0012004E020463946BDE8A1
S31508000A70F08D0020054346EAE0762C4337430A9872
S31508000A806305E40AA0EB08000022FD0A44EA47547D
S31508000A900A3002D500200146E9E701051019694127
S31508000AA0DDE9084500196941BDE8F04DA2E770B5D2
S31508000AB021F0004303430CD0C1F30A550024D5EBBB
S31508000AC0040564EB0403D617AD1AB34102DB002014
S31508000AD0014670BD201841EB025170BD2DE9F04D5D
S31508000AE000231A461B1A8A4103DB00200146BDE88B
S31508000AF0F08DC1F30A52C1F3130141F480154FF08A
S31508000B00000BD10702D100186D41521E002704467A
S31508000B1040F2FF11384601EB620A3E46804602461D
S31508000B2000204FF48011FFF7D4FEC2197141BB189B
S31508000B3046EB0100B4EB030C75EB000C04D3E41A86
S31508000B4065EB000517460E46241908F101006D41AC
S31508000B5080463428E3DDF91946EB0600091BA8414F
S31508000B6003D24FF0FF32134601E0002213461BEB77
S31508000B70070046EB0A51BDE8F04DFFF73BBFC1F34E
S31508000B800A52C1F3130140F2FF3341F480119A422D
S31508000B9002DA00200146704740F233439A42A2F235
S31508000BA0334202DC5242FFF794BEFFF783BE0000D1
S31508000BB0064C074D06E0E06840F0010394E807009C
S31508000BC098471034AC42F6D3FFF7EAFADC35050845
S31508000BD0FC3505082DE9F05F8246007800271546A2
S31508000BE08B460AF10104B946302801D09DB113E0BD
S31508000BF014F8010B0127782803D0582801D045B1ED
S31508000C000AE00DB1102D07D10027102514F8010BA5
S31508000C1002E0082500E00A250026B0460EE005FB9E
S31508000C20080005FB06F1012701EB10461FFA80F8BC
S31508000C30B6F5803F00D3B94614F8010B294600F0F3
S31508000C4018F80028EBDABBF1000F05D00FB1641EC7
S31508000C5000E05446CBF80040B9F1000F06D008F082
S31508000C6029FB02210160C81EBDE8F09F48EA06403C
S31508000C70FAE73A2800D2303820F02002412A01D378
S31508000C80A2F13700884201D34FF0FF30704770B5A4
S31508000C908C1810F8015B15F0070301D110F8013B19
S31508000CA02A1106D110F8012B03E010F8016B01F8A0
S31508000CB0016B5B1EF9D12B0705D40023521E0DD4F8
S31508000CC001F8013BFAE710F8013BCB1A921C03E046
S31508000CD013F8015B01F8015B521EF9D5A142D8D37E
S31508000CE0002070BD2E4808B5016841F00101016079
S31508000CF0006800F0010000902A4803F047FE28200B
S31508000D000EF049F9274803F051FF7021254803F0F2
S31508000D1009FF244803F088FFA821224803F002FFB0
S31508000D20204803F081FF00211E4803F0FBFE1D4802
S31508000D3003F07AFF00211B4803F0F4FE194803F07C
S31508000D4073FF184803F051FF0A200EF017F900F058
S31508000D50E3F8144803F02AFF7021124803F0E2FE74
S31508000D60104803F061FFBE210E4803F0DBFE0D4874
S31508000D7003F05AFF08210B4803F0D4FE094803F094
S31508000D8053FF0021074803F0CDFE064803F04CFF49
S31508000D90044803F02AFF0A200EF0FDF8002008BDDB
S31508000DA03038024000000020FEB5052400220D461A
S31508000DB00646019202925648009203F0F7FE702109
S31508000DC0534803F0AFFE524803F02EFFAC215048BB
S31508000DD003F0A8FE4E4803F027FF33214C4803F0E2
S31508000DE0A1FE4B4803F020FF0021494803F09AFE74
S31508000DF0474803F019FF464803F0F7FE502000E085
S31508000E0005200EF0BBF800F087F8C00702D0641E74
S31508000E10E4B2F5D2002C78D03D4803F0C7FE712124
S31508000E203B4803F07FFE3A4803F0FEFE384803F0DD
S31508000E3039FE8DF80400364803F05BFE344803F0AB
S31508000E4031FE8DF80500324803F053FE304803F0B2
S31508000E5029FE8DF806002E4803F04BFE2C4803F0B9
S31508000E6021FE8DF807002A4803F043FE284803F0C0
S31508000E7019FE8DF80800264803F03BFE244803F0C7
S31508000E8011FE8DF80900224803F078FE204803F089
S31508000E90ACFE9DF805009DF80610000340EA011017
S31508000EA09DF8071040EA11104FF47A714843000D77
S31508000EB000EE100AF8EE400AB2EE040A80EE801A36
S31508000EC086ED001A9DF807000007000D00909DF8B2
S31508000ED0080000990843000200909DF8090000994F
S31508000EE00843C0F313004FF4FA61009048430949D8
S31508000EF001EB105000EE900A0020F8EE600A80EE32
S31508000F00801A85ED001AFEBDFFE70120FBE7000009
S31508000F10000000200CFEFFFF10B50B4803F046FE4C
S31508000F207121094803F0FEFD074803F07DFE0648D7
S31508000F3003F0B8FD0446044803F020FE024803F017
S31508000F4054FE204610BD00000000002010B505F034
S31508000F50F5FF9FED121B51EC100B53EC112BFFF70D
S31508000F606EFB41EC100B9FED0F1B08F029FC9FED63
S31508000F700F1B51EC100B53EC112BFFF7EBFA9FEDFF
S31508000F800D1B53EC112BFFF7E8FA9FED0C1B53ECE6
S31508000F90112BFFF7E2FA41EC100B10BD0000000020
S31508000FA000AA8F406C45D9CC955BC83F000000006D
S31508000FB00000F03FFD87F4DBD781D33F9A999999D2
S31508000FC0B3BE01412DE9F0411D462DED068B1446B1
S31508000FD00E4607469DED0D8ADDED0C8A11FB06F0DF
S31508000FE012FB040000EE100AB8EEC00A09F0D8FA9F
S31508000FF0F0EE400A00EE107AB8EEC00A08F05EF984
S31508001000F0EE409A17FB07F014FB040000EE100AF6
S31508001010B8EEC00A09F0C4FAF0EE400A00EE106A0B
S31508001020B8EEC00A08F04AF9B0EE409A08F01EFB7E
S31508001030F8EEE80A60EE208AB0EE490A09F0E8F907
S31508001040F0EE400A00EE105AB8EEC00A20EE80AA6A
S31508001050B0EE690A09F0DCF94AEE008AB0EE690AD0
S3150800106008F004FBF8EEC80A20EE20AAB0EE490AFA
S3150800107009F0CEF94AEE408AB0EE690A08F0F6FAA7
S31508001080F0EE400A00EE105AB8EEC00A20EE809A3A
S31508001090B0EE690A09F0BCF9F8EEC80A00EE809AC3
S315080010A0B0EE680AF0EE490A08F008F910EE100AE0
S315080010B0FFF78AFB9FED091B53EC112BFFF74DFA3F
S315080010C09FED081B53EC112BFFF7B9FAFFF7C0FB8E
S315080010D0BDEC068B00EE100ABDE8F08100000000AA
S315080010E0008066404AD8124DFB210940F8B574487D
S315080010F0006820F01DF8734CC821206023F0EEF933
S315080011008221206822F036FF0020034600906E48B0
S315080011100922016820681FF053FC102120681FF07F
S3150800112075FF6FF07F45284619F036F9014600220B
S31508001130206823F0FBF800220121206823F023F918
S3150800114020681EF047F942F2D1763146606023F0F6
S31508001150C5F93146606822F00DFF0221606822F069
S31508001160C6FE5AA160681EF09FFF48F2FF0019F0FC
S3150800117013F901460022606823F07FF920681EF003
S3150800118029F93146A06023F0A9F93146A06822F072
S31508001190F1FE0021A06823F0B8F91921A06823F010
S315080011A0CBF90221A06822F0A2FE49A1A0681EF090
S315080011B07BFF002019F0F0F801460022A06823F012
S315080011C05CF900224549A06823F064F920681FF0FD
S315080011D0AFFFC821E06023F081F91E21E06822F004
S315080011E0C9FE0021E06823F090F90E21E06823F09B
S315080011F0A3F90521E06822F07AFE1021E0681FF0C5
S3150800120005FF00221146E06823F02CF9284619F05C
S31508001210C3F801460022E06823F088F80022114648
S31508001220E06823F095F82E4819F0B6F80146002232
S31508001230E06823F092F80022FF21E06823F099F88D
S3150800124000220121E06823F09EF800220221E068CE
S3150800125023F094F8234819F09FF801462022E06805
S3150800126023F064F82022FF21E06823F071F8E06893
S315080012701EF0B0F83146206123F030F93146206976
S3150800128022F078FE0921206922F031FE16A1206994
S315080012901EF00AFF154819F07FF80146002220695A
S315080012A023F0EBF80022FF21206923F0F9F8E06823
S315080012B001B00023BDE8F0401A460D491FF0A4BA54
S315080012C0FC040020C406002060050020EF81B10060
S315080012D0E5BC80E58F91E4B8AD000000A055030891
S315080012E080808000969696004F4B000078B85F0085
S315080012F0F98B0208FEE7000030B5124887B001688E
S3150800130041F0020101600068142100F00200059016
S315080013106846FFF72CF801204FF480740321CDE9C5
S315080013200040CDE90201084D6946284601F016F845
S3150800133001222146284601F00EF9044803F026FB4F
S3150800134007B030BD30380240000402409400002047
S31508001350022000F027B800001CB501A8009004235D
S31508001360032215210E4803F02BFB9DF804109DF867
S31508001370050001F00F0140EA01229DF807009DF8DB
S315080013800630074903F00F030F3040EA03200839F7
S31508001390A0F21710C2F1EF024042C1E900201CBDBD
S315080013A09400002002461521014803F04DBB0000B9
S315080013B0940000200B4602461521014803F05DBC47
S315080013C09400002070B50A4D4FF48074002221461F
S315080013D0284601F0C0F80A2000F0AEFF0122214697
S315080013E0284601F0B8F8BDE87040642000F0A4BFB4
S315080013F0000402400321E520FFF7DCBFFFF7E2BF48
S3150800140010B51CF0E8F81DF035FE1DF039FE012870
S3150800141003D1BDE8104005F003BF10BD70B500202C
S315080014200863486381F8380081F839000C46488714
S315080014300121204622F082FD204625F041F86FF072
S315080014407F456062284618F085FF01460022606ADB
S3150800145022F06CFF002018F07DFF01460022606A2A
S3150800146023F00BF800221146606A22F0FBFF2322C4
S31508001470F021606A22F04FFE0021606A25F09EF98D
S315080014802021606A25F010FA0321606A25F07CF9AC
S3150800149041A1606A25F070FA40A1606A25F045FA14
S315080014A000221146606A22F06EFF1021606A1FF062
S315080014B0ADFD204625F004F8A062284618F04AFF3C
S315080014C001460022A06A22F031FF002018F042FFF0
S315080014D001460022A06A22F0D0FF00221146A06A27
S315080014E022F0C0FF00221146A06A22F04CFF192202
S315080014F0F021A06A22F00FFE0121A06A25F0D6F994
S315080015000021A06A25F05AF92021A06A25F0CCF915
S315080015100321A06A25F038F91FA1A06A25F02CFA44
S31508001520204617F003FF00221146E06222F09AFFD8
S3150800153000221146E06A22F026FF284618F00AFF24
S3150800154001460022E06A22F0F1FEDC22F021E06A80
S3150800155022F0E1FD1549E06A18F0FAF9002018F0C2
S31508001560F9FE01464FF4A0252A46E06A22F085FFD7
S315080015700F4818F0EFFE01462A46E06A22F0D6FE2A
S315080015800C49E06A18F0D7F92346E06ABDE87040CE
S315080015901C2209491FF038B90000000043414C439A
S315080015A020484953544F5259090900002006002083
S315080015B0E0E0E000EC2C0508C5E1000810B501469E
S315080015C003481FF07BFC04461FF0E6FC204610BDCE
S315080015D0D02C0508704710B51BF0FDFF1DF04AFD1D
S315080015E01DF04EFD012803D1BDE8104005F018BED8
S315080015F010BD10B51DF03EFD1DF042FD012803D1BA
S31508001600BDE8104005F00CBE10BD00007CB50F4CBF
S315080016100F4DB4F8640000EB8000400001B2A868E2
S315080016201DF036FB0BA16846626E07F0F3FD6946AE
S3150800163028691EF039FDB4F84A2007A1684607F064
S31508001640E9FD6946E8691EF02FFD7CBDCC02002045
S315080016509C0600203A2564003A25646D00000000C7
S315080016601C4D1D4E1D4C1E4F1B4900231A46491C76
S31508001670286827F0B3FBE8B9707805281AD2DFE89E
S3150800168000F0030B0E1911002DF0B6FF134803F0F6
S31508001690B7FE2EF069FD0DE003F0A8FD0AE003F0A1
S315080016A07DFD07E000F0DAFB8068A168884201D179
S315080016B005F0B6FD00F0D2FB8068A168884205D126
S315080016C0012300220449386827F0E6FB642027F046
S315080016D049FBC9E77409002078090020DC080020C6
S315080016E068090020014800F0B5BC0000E84D00205C
S315080016F0014800F0AFBC0000284B0020014800F06C
S31508001700A9BC00007C4C0020014800F0A3BC0000E6
S31508001710484E0020014800F09DBC0000DC4C00202B
S3150800172001681823CAB2103AB2FBF3F2054B6FF3FD
S315080017300901032A9B5CC36500D9091D8165084612
S31508001740704700003C13030810B5014600208B695A
S315080017508A6A4FF0C07453B1B3F5005F15D072B101
S31508001760012A0CD0022A0AD0032A09D104E01AB1A8
S31508001770012A06D0022A03D1C96AC90100D5012067
S3150800178010BDC96AA142FAD010BD002AF7D0012AB5
S31508001790F2D0022AF3D0032AF3D010BD30B504687C
S315080017A0256825F480252560046863608368402BD6
S315080017B0036803D099600068C26030BD9A6000680B
S315080017C0C16030BD70B53F4C20691FF0B1FC3B21AC
S315080017D0206422F083FE3B21206C22F0CBFB0F21F4
S315080017E0206C22F092FE1F21206C22F0A5FE072114
S315080017F0206C22F07CFB04F1B00024F047F81D2190
S3150800180004F1B00024F07BFA002104F1B00024F0C2
S3150800181073F9002204F19801206C1FF06DF810216D
S31508001820206C1FF0F3FB206C1DF0D4FD42F2D1753D
S315080018302946606422F052FE2946606C22F09AFB23
S315080018400921606C22F053FB1FA1606C1EF02CFC72
S315080018506FF07F4018F029FD01460022606C22F0E7
S315080018600CFE00221949606C22F014FE206C1DF053
S31508001870B1FD2946A06422F031FE2946A06C22F06B
S3150800188079FB0521A06C22F057FE0921A06C22F0F5
S315080018902EFBE2780EA10F4807F0BCFC0D49A06CA0
S315080018A01EF002FC002018F000FD01460022A06C84
S315080018B022F0E3FDA06CBDE870400022064922F044
S315080018C0E9BD000000040020EEA6AB00700604087F
S315080018D02532640068C40120744A03087047B0EED4
S315080018E0402A20EE010A00EEE10A62EE211A40EED5
S315080018F0811AF0EE610A704703480168C90701D0EA
S315080019000121016070470000143C014010B51DF02C
S31508001910B1FB1DF0B5FB012803D1BDE8104005F069
S315080019207FBC10BD7CB5104C104D002214F83D1F2D
S31508001930E86817F028FC61780022E86917F023FCAC
S3150800194022780BA1684607F065FC694668681EF0B0
S31508001950ABFB627806A1684607F05CFC69466869D5
S315080019601EF0A2FB7CBD0000CC020020E40600208D
S315080019702564000072B6FEE72DE9F05F00212DED23
S31508001980068B06464FF4007340F2FF390A468A4230
S315080019900BDA06EBC10006EBC204D0E90057D4E91E
S315080019A0008CC0E9008CC4E90057184603E0091A00
S315080019B000EBD07040108842F9DD521C01444A45BC
S315080019C0E5DB4FF4806A5046012700E07F1C00EBF8
S315080019D0D07040100128F9D1012577E0691E022050
S315080019E000FA01F808EBD8704410B7EE008ADFED6C
S315080019F03A8A2046FEF792FE8B464BEC100B9FED7B
S31508001A0037AB814653EC102B51EC1A0BFEF717FE39
S31508001A1041EC100B07F0CEFA51EC100BFEF718FF4D
S31508001A204BEC109B09EE100A53EC102B51EC1A0BD9
S31508001A30FEF705FE41EC100B07F0D0FA51EC100B3F
S31508001A40FEF706FF00EE100A0021631EF1EE402A9B
S31508001A5039E00846D14625E0021906EBC202F0EE47
S31508001A60681A92EC020AB0EE481AFFF738FF06EB3E
S31508001A70C00C40449CED001A31EE401A82ED001A63
S31508001A809CED011A31EE601A82ED011A9CED001ADE
S31508001A9031EE000A8CED000A9CED010A30EE200AB0
S31508001AA08CED010A4845D7DBF0EE621AB0EE491A0A
S31508001AB0F0EE680AB0EE480AFFF711FFB0EE408A6A
S31508001AC0F0EE608A491C9942C3DD6D1CBD4285DD76
S31508001AD0BDEC068BBDE8F09F00000000182D4454AD
S31508001AE0FB21094070B56B4C20691FF021FBD22100
S31508001AF0A06522F0F3FC3B21A06D22F03BFA6FF0C3
S31508001B000E01A06D22F018FD0521A06D22F0EFF957
S31508001B1004F1C00023F0BAFE5F4D284618F0C5FB55
S31508001B20014604F1C00023F0C8FF002104F1C000FB
S31508001B3023F0E2FF1E2104F1C00024F0E0F80022A1
S31508001B4004F1C001A06D1EF0D7FE1021A06D1FF094
S31508001B505DFAA06D1FF0ECFA3D21E06522F0BEFCAF
S31508001B603D21E06D22F006FA6FF04901E06D22F0A2
S31508001B70CCFC0921E06D22F0BAF904F1C80023F083
S31508001B8085FE284618F091FB014604F1C80023F0AB
S31508001B9094FF052104F1C80023F0BAFF6FF07F46D1
S31508001BA0304618F082FB014604F1C80023F099FF7D
S31508001BB0462104F1C80023F090FF1E2104F1C80055
S31508001BC024F09DF8002204F1C801E06D1EF094FE91
S31508001BD01021E06D1FF01AFAE06D1DF0FBFB42F2D2
S31508001BE0D1752946206622F079FC2946206E22F016
S31508001BF0C1F90921206E22F07AF928A1206E1EF07B
S31508001C0053FA304618F051FB01460022206E22F0A6
S31508001C1034FC00222249206E22F03CFCA06D1DF007
S31508001C20D9FB2946606622F059FC2946606E22F0E7
S31508001C30A1F91E21606E22F068FC0921606E22F06F
S31508001C4056F9184DE26892B117A1184807F0E2FA5A
S31508001C501649606E1EF028FA284618F026FB01463B
S31508001C600022606E22F009FC002211490DE011A144
S31508001C70606E1EF019FA284618F017FB0146002276
S31508001C80606E22F0FAFB0D490022606EBDE87040D6
S31508001C9022F000BC0004002014AACE00EE9CA0008E
S31508001CA0F009040898744C002532640068C40120C1
S31508001CB084B80308EFBC8DEFBC8D0000A4AF030801
S31508001CC0014803F09DBB00006407002010B51DF015
S31508001CD0D1F91DF0D5F9012803D1BDE8104005F06A
S31508001CE09FBA10BD2DE9F0411A4F002507F12400CF
S31508001CF03D803C4687F8745014210646FEF737FBAC
S31508001D0015A0606314A0A06413A0E06513A0206763
S31508001D100020A41C002104EBC00200BF22F81150C9
S31508001D20491CC9B20429F9D3401CC0B20428F1D30E
S31508001D3020460BF0EBF920460BF0E8F9B91C3046C3
S31508001D402DF046F9064831468068BDE8F04117F09F
S31508001D50FFBD000074C401200A0000000000000056
S31508001D602807002070B50C48007898B1002005F0C7
S31508001D70A9FB0446012005F0A5FB0546022005F04F
S31508001D80A1FB45EA042140EA0120010201D540F001
S31508001D907F4070BD012070BD7C00002010B5012079
S31508001DA02DED028B00F012F8B0EE408AF0EE608A54
S31508001DB0FFF7D8FFFEF7B2FC53EC182BFEF73FFCF3
S31508001DC0BDEC028B41EC100B10BD000008281DD29B
S31508001DD0DFE800F004070A0D101316199FED0D0B26
S31508001DE070479FED0E0B70479FED0E0B70479FEDEA
S31508001DF00F0B70479FED0F0B70479FED100B704749
S31508001E009FED100B70479FED110B70479FED110B5F
S31508001E10704700000000000000002041000000009C
S31508001E20000038410000000000004C41000000009E
S31508001E3000005E410000000000000F4100000000A5
S31508001E4000801F410000000000C02F410000000074
S31508001E5000E03F4100000000000000000448017E49
S31508001E6021B100EB810050F8040C70470020704740
S31508001E704CC4012070B50C48007898B1032005F0D1
S31508001E8021FB0446052005F01DFB0546032005F049
S31508001E9019FB45EA042140EA0120010201D540F078
S31508001EA07F4070BD012070BD7C00002010B5002069
S31508001EB02DED028BFFF78AFFB0EE408AF0EE608ABE
S31508001EC0FFF7D8FFFEF73BFC53EC182BFEF7B7FBE2
S31508001ED0BDEC028B41EC100B10BD10B5102005F0BF
S31508001EE0F1FA0446112005F0EDFA010941EA041059
S31508001EF0010502D540F4704000B210BD70B513203C
S31508001F0005F0E0FA0546142005F0DCFA044615202B
S31508001F1005F0D8FA0109280340EA041040EA11102E
S31508001F20010301D50149084370BD00000000F0FF18
S31508001F3010B5112005F0C6FA0446122005F0C2FABB
S31508001F4004F00F0140EA0120010502D540F4704073
S31508001F5000B210BD70B5152005F0B4FA0446162077
S31508001F6005F0B0FA0546172005F0ACFA2107090B6B
S31508001F7041EA05210843010301D50149084370BD1B
S31508001F800000F0FF70B50D46C0B205F09BFA044696
S31508001F90E8B205F097FA40EA042000B270BD2DE9D0
S31508001FA0F0410446876D00F0DBFA064694F83500E2
S31508001FB00025022806D08020606584F83450012068
S31508001FC0BDE8F0812068016821F0160101602068EB
S31508001FD0416921F080014161206C08B9A06C20B1EB
S31508001FE02068016821F0080101602068016821F075
S31508001FF0010101600CE000F0B3FA801B052807D93F
S3150800200020206065032084F8350084F83450D7E72B
S3150800201020680068C007EED194F85C103F2088401D
S31508002020B860012084F8350084F834500020C7E7EA
S3150800203090F83510022903D08021416501207047A8
S31508002040052180F835100068016821F0010101605A
S31508002050002070472DE9F84304464FF00009CDF8F3
S31508002060009063484FF41651A56D0068B0FBF1F770
S315080020702E6894F85C10082000FA01F131420FD05E
S3150800208021680A6852070BD50A6822F004020A601A
S3150800209094F85C108840A860606D40F001006065A7
S315080020A094F85C104FF0010808FA01F0304208D0A5
S315080020B021684969090604D5A860606D40F00200E8
S315080020C0606594F85C1004208840304208D0216886
S315080020D00968890704D5A860606D40F0040060654A
S315080020E094F85C1010208840304218D0216809689E
S315080020F0090714D5A86020680168490304D5006853
S31508002100000308D5A16C07E00168C90503D4016876
S3150800211021F008010160216C09B12046884794F82E
S315080021205C1020208840304231D021680968C906F1
S315080021302DD5A86094F8350005282068016806D0D2
S31508002140490347D5006800031DD4616C1CE021F0E3
S31508002150160101602068416921F080014161206C07
S3150800216008B9A06C20B12068016821F00801016057
S3150800217094F85C103F208840A86084F8358084F87D
S315080021803490216D1FE0E16B09B120468847606DE8
S3150800219000282BD0606DC00714D0052084F83500C0
S315080021A02068016821F0010101600098401C009038
S315080021B0B84203D820680068C007F6D184F835808D
S315080021C084F83490E16C002910D001B02046BDE8AF
S315080021D0F04308470168C905D5D4016821F0100104
S315080021E0016084F8358084F83490CCE7BDE8F8833C
S315080021F0AC0000202DE9F041044600F0B1F906468E
S315080022005CB1022084F83500002584F83450206833
S31508002210016821F0010101600DE00120BDE8F081AF
S3150800222000F09EF9801B052805D92020606503204B
S3150800223084F83500F2E720680068C007F0D1226804
S31508002240116820480140D4E901031843D4E903364C
S315080022503343184363691843A3691843E36918436A
S31508002260236A18430843616A042903D1D4E90B1386
S3150800227019430843106020684069666A20F0070120
S3150800228030460E43012704280CD1A06A0643E06AAB
S3150800229040B12046FFF758FA20B14020606584F81F
S315080022A03570BAE7206846612046FFF739FA94F890
S315080022B05C203F2191408160656584F83570002077
S315080022C0ACE700003F8010F02DE9F0410446866D2A
S315080022D090F83400002501280DD0012084F8340038
S315080022E094F835700020012F07D084F834000225B1
S315080022F02846BDE8F0810220FBE7022784F83570FE
S3150800230060652046FFF74AFA94F85C103F2088403B
S31508002310B0602068016841F016010160206C20B1A8
S315080023202068016841F0080101602068016841F0F1
S3150800233001010160DCE7000070B5044600F010F901
S315080023400546601C02D004480078044400F008F9E9
S31508002350401BA042FAD370BDB00000202DE9F84F0B
S31508002360DFF8B8A10022012403254FF00F090AF16E
S31508002370040BAAF1040E00BF0B6804FA02F63340F8
S31508002380B34273D10F7907F00307012F01D0022F4B
S3150800239016D187684FEA420805FA08FC27EA0C07AF
S315080023A0D1F80CC00CFA08FC4CEA070CC0F808C0B7
S315080023B04768B7430E79C6F3001696403E43466013
S315080023C00E79F643B6070DD0C768560005FA06FC1F
S315080023D027EA0C07D1F808C00CFA06FC4CEA070CE9
S315080023E0C0F80CC00E7906F00306022E10D1D608E6
S315080023F000EB8608D8F8206057074FEAD76C09FA29
S315080024000CF7BE430F6907FA0CF73743C8F8207074
S3150800241006684FEA420C05FA0CF7BE430F7907F037
S31508002420030707FA0CF7374307604E6816F4403F70
S315080024306DD03B4E376847F480473760366822F0E0
S31508002440030706F480460096364E07EB060CDCF8C2
S31508002450086897073F0F09FA07F826EA0806DFF81B
S31508002460C880404503D14FF000081EE04FE0DFF872
S31508002470BC80404502D14FF0010816E0DFF8B08075
S31508002480404502D14FF002080FE0DFF8A88040452A
S3150800249002D14FF0030808E0DFF89C80404502D1DE
S315080024A04FF0040801E04FF0070808FA07F848EA71
S315080024B00608CCF80888DAF800605746D1F804C050
S315080024C09E435FEACC2C00D51E433E60DBF80060D5
S315080024D05F46D1F804C09E435FEA8C2C00D51E43A4
S315080024E03E60DEF800607746D1F804C09E435FEA96
S315080024F08C3C00D51E433E60084F083F3E68D1F825
S3150800250004C09E435FEACC3C00D51E433E60521C85
S31508002510102AFFF431AFBDE8F88F0000083C0140EF
S3150800252044380240003001400000024000040240E6
S3150800253000080240000C02400010024000690840F2
S3150800254000D001207047426921EA02030A4043EAA3
S315080025500241816170470AB1816170470904FBE74E
S315080025600148806870470000B00000200248816872
S315080025700278114481607047B00000200B4810B5FE
S31508002580016841F400710160016841F480610160ED
S31508002590016841F480710160032000F099F80F206A
S315080025A000F006F800F04AF8002010BD003C024092
S315080025B030B505461C4887B00024016841F48021DF
S315080025C00160006806A900F48020009001A800F0C8
S315080025D0F3F900F021FA1549154AB0FBF1F115484F
S315080025E0491E026040F2E732C0E90324C0E901143B
S315080025F0846101F065F8040012D10E4801F08EF8E6
S3150800260004000DD11A2000F035F8102D07D200224B
S3150800261029461A2000F03CF80748056000E0012426
S3150800262007B0204630BD00004438024040420F0043
S3150800263000480140884B0020B40000200C4882B0B6
S31508002640016841F480410160006800F48040009010
S315080026500748001F016841F08051016000680022A8
S3150800266000F0805000900F21901E02B000F010B8C4
S3150800267044380240002809DB00F01F02012191407E
S315080026804009800000F1E020C0F800117047000002
S31508002690F0B40E4B1B680C46C3F30223C3F10705BF
S315080026A0042D00D90425191D072901D2002300E0AD
S315080026B0DB1E012606FA05F1491E214099409E4077
S315080026C0761E16403143F0BC06F0E3BD0CED00E083
S315080026D0064900F0070208684FF6FF03184040EA6B
S315080026E00220034A10430860704700000CED00E022
S315080026F00000FA050C4A136823F00303034313602A
S315080027000A48026842F004020260012909D0032936
S3150800271001D040BF20BF20BF016821F0040101603D
S31508002720704730BFF8E700000070004010ED00E089
S315080027302DE9F843044600684FF00109C1074FF038
S31508002740000601D1400729D5DFF82081C8F868605E
S31508002750FFF706FF0746464D05E000BFFFF700FFF7
S31508002760C01B022859D828680001F7D4A068217B25
S31508002770800140EA0170616808433D498431086078
S31508002780C8F86890FFF7ECFE074604E0FFF7E8FE96
S31508002790C01B022841D828680001F7D52078800791
S315080027A052D533484030016841F0805101600068D5
S315080027B0304D00F080500090286840F48070286002
S315080027C0FFF7CEFE074604E0FFF7CAFEC01B022845
S315080027D023D82868C005F7D5254D7035286810F424
S315080027E0407020D0218A01F4407181421BD02868AC
S315080027F0214920F44070C1F800900E6028602868CE
S31508002800C00710D0FFF7ACFE064641F2883707E04E
S31508002810FFF7A6FE801BB84202D90320BDE8F8835D
S3150800282028688007F4D521691148C1F301220830C8
S31508002830032A12D0016821F4F81101602868218A58
S31508002840C1F30B01084328602078000703D50B491C
S31508002850207DC1F8E0010020E0E70268084B22F479
S31508002860F81219400A430260E8E7000000004742F0
S315080028700038024000700040400E474200104742B0
S31508002880FFFCFF0F2DE9F0470E46050065D0DFF87F
S315080028901481D8F80000F7B200F00700B04207D25A
S315080028A088F80070D8F8000000F00700B04254D14C
S315080028B028683D4C810712D5400703D5206840F4A7
S315080028C0E05020602878000703D5206840F460406F
S315080028D020602068A96820F0F00008432060287866
S315080028E0C0072DD0304968680839012812D0022857
S315080028F013D0032811D00968890700292DDA216821
S3150800290021F0030101432160FFF72AFE814641F2C7
S31508002910883A0EE009688903EFE709688901ECE758
S31508002920FFF71EFEA0EB0901514502D90320BDE8B9
S31508002930F0872068696800F00C00B0EB810FEFD1D2
S31508002940D8F80010404601F00701B14207D90770D0
S31508002950006800F00700B04201D00120E7E72878B8
S31508002960400705D52068E96820F4E0500843206050
S315080029702878000706D52068296920F4604040EACF
S31508002980C100206000F058F82168084AC1F3031115
S31508002990515CC8400649086006480068FFF708FE0B
S315080029A00020C4E7003C024008380240241303080C
S315080029B0AC000020B40000200F2202600C4A136805
S315080029C003F003034360136803F0F003836013689E
S315080029D003F4E053C36012684FF4E05303EAD202EB
S315080029E002610448006800F00700086070470000AC
S315080029F008380240003C0240044805490068096856
S31508002A00044AC1F38221515CC8407047AC000020DB
S31508002A100838024034130308044805490068096861
S31508002A20044AC1F34231515CC8407047AC000020EB
S31508002A300838024034130308154810B5006810F02A
S31508002A400C02144813D01449042A0FD0082A0ED1B0
S31508002A500F4C241F2268236802F03F025B0207D549
S31508002A602068C0F38810A0FB010106E0084610BDE7
S31508002A702168C1F38811A1FB00010023FDF708FCBA
S31508002A802168C1F30141491C4900B0FBF1F010BDB2
S31508002A90083802400024F40040787D012DE9F84FFB
S31508002AA004006ED02078DFF84C93C007A9F104051E
S31508002AB04AD009F104000168C1F38101012908D04F
S31508002AC00068C0F3810002280AD1D9F80000400244
S31508002AD006D52868800337D560680028E1D033E03A
S31508002AE06068B0F5803F10D0B0F5A02F286810D0E8
S31508002AF020F480302860286820F4802028606068E8
S31508002B00A8B1FFF72DFD06460DE0286840F4803091
S31508002B10F4E740F480202860F7E700BFFFF720FDC0
S31508002B20801B642873D828688003F7D50CE0FFF764
S31508002B3017FD064605E000BFFFF712FD801B642857
S31508002B40F0D828688003F7D42078DFF8AC828007AD
S31508002B504FF0000A3ED5A748001D016811F00C0F7A
S31508002B6008D00068C0F3810002280BD1D9F800000C
S31508002B70400207D42868800716D5E068012800D1E6
S31508002B8012E033E1E068B8B10120C8F80000FFF7A9
S31508002B90E7FC064605E000BFFFF7E2FC801B0228BB
S31508002BA0C0D828688007F7D52868216920F0F8007A
S31508002BB040EAC10028600DE0C8F800A0FFF7D0FC85
S31508002BC0064604E0FFF7CCFC801B02281FD82868BD
S31508002BD08007F7D42078000722D5864F8748616991
S31508002BE0703771B101210160FFF7BAFC064604E0AF
S31508002BF0FFF7B6FC801B022809D838688007F7D586
S31508002C000EE0C0F800A0FFF7ABFC064605E082E040
S31508002C10FFF7A6FC801B02287DD838688007F7D402
S31508002C202078400768D5DFF8CCB100270BF13C0BBC
S31508002C30DBF80000C0000BD4DBF8001041F080512F
S31508002C40CBF80010DBF80000012700F08050009058
S31508002C506B4E3068C00510D4306840F48070306020
S31508002C60FFF77EFC009005E0FFF77AFC0099401A12
S31508002C70022850D83068C005F6D55E4EA0686C3676
S31508002C8001280FD00528306810D020F001003060E8
S31508002C90306820F004003060A068B8B1FFF760FC27
S31508002CA000900FE0306840F00100F4E740F00400BF
S31508002CB03060F7E7FFF754FC0099411A41F2883073
S31508002CC0814266D830688007F4D50EE0FFF748FCE5
S31508002CD0009007E0FFF744FC0099411A41F288305A
S31508002CE0814256D830688007F4D42FB1DBF800103B
S31508002CF021F08051CBF80010A069C8B33D49091DE1
S31508002D000968C1F3810102294AD00228504607D032
S31508002D10C8F8600000E03CE0FFF722FC04463BE010
S31508002D204746C8F86000FFF71BFC064605E000BFEB
S31508002D30FFF716FC801B02282BD828688001F7D4D9
S31508002D40D4E907010843A16A2E4A490802EB014162
S31508002D50626A41EA8211084394F82C1040EA01613C
S31508002D60C9F8001001203866FFF7FAFB044606E0AA
S31508002D703EE000BFFFF7F4FB001B022809D82868CD
S31508002D808001F7D534E000BFFFF7EAFB001B0228F5
S31508002D9002D90320BDE8F88F28688001F4D427E01B
S31508002DA00128F7D0D9F80000E26900F480019142C1
S31508002DB01CD1226A00F03F01914217D147F6C07133
S31508002DC0626A0140B1EB821F10D1A26A4FF0FF334D
S31508002DD000F4403103EB5202B1EB024F06D194F8EE
S31508002DE02C1000F07060B0EB016F01D00120D1E724
S31508002DF00020CFE70438024000004742800E4742D1
S31508002E00007000400000FFFF0068503050F82100B5
S31508002E1070470068503040F8212070472DE9F84384
S31508002E2089463D494FF4FA4C4FF47A730F68B7FB5D
S31508002E30FCF159430091017F012965D001250577E9
S31508002E40022141770368CA215962036853215962EE
S31508002E5001688B684FF0FF045FEA43584FF00003A0
S31508002E604FF003060CD500BFDDF80080B8F1010865
S31508002E70CDF800804AD0D1F80C805FEA4878F3D4C0
S31508002E80D1F8088028F48068C1F808800168D1F86C
S31508002E900C8008F0800868F49068C1F80C80B7FBCD
S31508002EA0FCF14FF47A77794300910168009F7F1E01
S31508002EB000972BD0CF687F07F8D58E6826F00706CF
S31508002EC08E6001688E6816438E600268C2F8149098
S31508002ED012490A6842F480020A60104908310A68F1
S31508002EE042F480020A6001688A6842F480428A6075
S31508002EF001688A6842F480628A6001684C62457794
S31508002F0003770020BDE8F8830220FBE74C6246778A
S31508002F1003770320F6E70000AC000020003C0140E0
S31508002F207047000010B50A4904464FF4800008604F
S31508002F302068C168490508D5C16801F0800161F4B7
S31508002F409061C1602046FFF7EBFF0120607710BD56
S31508002F50143C014010B500680B4641680D48014015
S31508002F60080CD870C1F304245C7001F03F049C700F
S31508002F70C1F34231197052B904F060F8D870587824
S31508002F8004F05CF85870987804F058F898700020A7
S31508002F9010BD00003FFFFF0010B50B460168896AA7
S31508002FA0596001680969C1F30E01996000680168F2
S31508002FB00D480140C1F305401870C1F306245C7042
S31508002FC001F07F049C70890DD97052B904F036F867
S31508002FD01870587804F032F85870987804F02EF87B
S31508002FE09870002010BD00007F7F7F0010B5040098
S31508002FF002D0607F10B106E0012010BD00202077C6
S31508003000204600F041F8022060772068C168C9436D
S31508003010C90632D5CA214162216853204862204632
S3150800302004F020F820BB20688168164A11408160A8
S315080030302168886862681043D4E904231A43104358
S3150800304088602168E068086120680169228941EA88
S3150800305002410161204604F029F848B921680A6C42
S3150800306022F480220A6421680A6CA3691A430A6456
S315080030702268FF21516208B110BD00200121617745
S3150800308010BD0000BFFF8FFF10B586B0044618219B
S315080030906846FDF76CF90D492068884214D102206C
S315080030A00090000204906846FFF742FB08B1FEF75D
S315080030B061FC074901200860002205210320FFF76B
S315080030C0E7FA0320FFF7D6FA06B010BD002800403D
S315080030D03C0E474270B50446007F0B46012819D0BE
S315080030E00126267702206077B2B19878D97840EA27
S315080030F0014558781978000240EA413005432168AD
S31508003100CA204862216853204862204603F0AAFF75
S31508003110D0B122E0022070BD5878C10603D500F070
S31508003120EF000A305870D87803F091FF02045878F7
S3150800313003F08DFF42EA0022987803F088FF0243E5
S31508003140187842EA4035DAE70748054020684560BE
S31508003150204603F0ABFF00B966772268FF2151626B
S315080031600021217770BD00003FFFFF002DE9F041E7
S315080031700446007F0D46012823D04FF0010884F845
S315080031801C80022060772068002780684FEA40602C
S31508003190D2B1002800DBEF70A878297840EA01460A
S315080031A06878E978000240EA815006432168CA2017
S315080031B04862216853204862204603F053FFB8B19D
S315080031C02CE00220BDE8F081002800DBEF702878AB
S315080031D003F03DFF0204687803F039FF42EA002253
S315080031E0A87803F034FF0243E87842EA8056DDE720
S315080031F00D480640206806602068816821F4802111
S315080032008160D5E90301084321688A68104388600C
S31508003210204603F04BFF08B984F81D802268FF2179
S3150800322051622777CEE700007F7F7F0070B504469E
S315080032300B482168C860FFF793F905464FF47A767C
S3150800324007E000BFFFF78CF9401BB04201D9032005
S3150800325070BD2068C0688006F4D5002070BD0000E7
S315080032605F3F0100704770B5040009D0606A002509
S3150800327040B125616561A56294F8510040B10CE042
S31508003280012070BD6068B0F5827FF4D0E561F2E791
S3150800329084F85050204600F045F8022084F8510082
S315080032A02068016821F040010160A088218900F4A6
S315080032B0827001F404410843A18901F400610843BE
S315080032C0217C01F002010843217D01F00101084338
S315080032D0218B01F400710843217F01F0380108436E
S315080032E094F8201001F080010843218D01F4005163
S315080032F0084321680860A069042101EA104094F88F
S31508003300241001F010010843216848602068C1694B
S3150800331021F40061C1616565012084F8510000202F
S3150800332070BD000070B586B0064614216846FDF7E4
S315080033301EF82049306888423AD11F48002501689E
S3150800334041F480510160006800F4805005901A48E5
S315080033501438016841F0020101600068694600F00E
S3150800336002000590282000900220CDE901050320DF
S315080033700390052004901148FEF7F0FF114C104801
S3150800338020604FF0806060604020C4E902050001BB
S315080033902061400060618000C4E906052562204678
S315080033A06562FEF727FF08B1FEF7E4FAB464A66380
S315080033B006B070BD003001404438024000040240A7
S315080033C040640240284B00202DE9F84F98461646DF
S315080033D08A460446FFF7C4F8814694F85100012846
S315080033E01ED1BAF1000F73D0002E71D094F8500098
S315080033F0012815D0012784F85070032084F851005D
S3150800340000256565C4F830A0A686E686A563A58767
S31508003410E58765642564A068B0F5004F03D00CE025
S315080034200220BDE8F88F2068016821F0400101609C
S315080034302068016841F480410160206801684906F6
S3150800344003D4016841F040010160E068B0F5006FFF
S31508003450606803D048B3012E27D047E008B1012E93
S315080034601FD1206B21680088C86006E02068816843
S31508003470890709D5216B0988C160206B801C2063E8
S31508003480E08E401EE0860CE0FFF76AF8A0EB090123
S31508003490414503D3B8F1FF3F03D035E0B8F1000F3B
S315080034A032D0E08E0028E1D123E0206B2168007835
S315080034B0087306E02068816889070AD5216B0978B0
S315080034C00173206B401C2063E08E401EE0860DE0F1
S315080034D02BE0FFF745F8A0EB0901414503D3B8F106
S315080034E0FF3F03D010E0B8F1000F0DD0E08E0028A2
S315080034F0E0D14A464146204603F052FF08B1202053
S315080035006065A06830B109E084F8517084F85050BD
S31508003510032086E72068C1688068009084F85170A7
S3150800352004F8505F60680028F3D0012079E70000AE
S3150800353070B5044690F8510001281CD1C9B1C2B132
S3150800354094F85000012816D0012084F85000032072
S3150800355084F85100002565652163A286E286A56385
S3150800356065642564A587E587A068B0F5004F04D093
S315080035700DE0012070BD022070BD2068016821F0B1
S31508003580400101602068016841F480410160A16C36
S3150800359017480864A16C1748C863A16C1648C86424
S315080035A0A06C0565E38E2268216B0C32A06CFEF7D1
S315080035B08BFE30B1606D40F01000606584F85050A5
S315080035C0D7E720680168490603D4016841F040013D
S315080035D0016084F850502068416841F0200141603C
S315080035E02068416841F002014160002070BD00007A
S315080035F0317300083B7300080F7300087047704763
S315080036004FF0E0210428086903D020F0040008617F
S31508003610704740F00400FAE710B5401EB0F1807F0D
S3150800362001D3012010BD4FF0E02460610F2160171F
S3150800363005F02FFE0020A06107202061002010BDA4
S315080036407047704770B590F83C20012A2CD00124A9
S3150800365080F83C40022280F83D2003685A689D683D
S3150800366022F070060A6832435A60104B02689A4282
S315080036700ED0B2F1804F0BD00D4B9A4208D00D4BAD
S315080036809A4205D00C4B9A4202D00C4B9A4204D16E
S31508003690496825F080031943916080F83D40002170
S315080036A080F83C10084670BD022070BD000001403D
S315080036B00004004000080040000C004000400140A3
S315080036C010B5040003D094F83D0010B107E00120BE
S315080036D010BD002084F83C00204600F01EF80220A9
S315080036E084F83D00211D206804F0C4FC012084F8FC
S315080036F0460084F83E0084F83F0084F8400084F8C9
S31508003700410084F8420084F8430084F8440084F8B1
S31508003710450084F83D00002010BD704790F83D1024
S31508003720012901D001207047022180F83D10016867
S31508003730CA6842F00102CA6000680E4988420ED083
S31508003740B0F1804F0BD00C49884208D00B4988420B
S3150800375005D00B49884202D00A49884204D18168BB
S3150800376001F00701062903D0016841F00101016053
S315080037700020704700000140000400400008004097
S31508003780000C00400040014070472DE9F041044616
S315080037900068C66805694FF00007A90713D5B10781
S315080037A011D5F91E016101202077206880698007FC
S315080037B0204602D0FFF7E8FF04E000F0A7F820460D
S315080037C000F04AF92777680716D5700714D52168D7
S315080037D06FF004000861022020772068806910F4E1
S315080037E0407F204602D0FFF7CFFF04E000F08EF8B6
S315080037F0204600F031F92777280715D5300713D565
S3150800380021686FF008000861042020772068C069E5
S315080038108007204602D0FFF7B7FF04E000F076F8ED
S31508003820204600F019F92777E80616D5F00614D5CC
S3150800383021686FF010000861082020772068C069A9
S3150800384010F4407F204602D0FFF79EFF04E000F008
S315080038505DF8204600F000F92777E80708D0F0075A
S3150800386006D021686FF001000861204600F04EF985
S31508003870280608D5300606D521686FF0800008614D
S315080038802046FFF7DDFE680608D5700606D52168CE
S315080038906FF040000861204600F042F9A8060AD5F4
S315080038A0B00608D521686FF0200008612046BDE8FB
S315080038B0F041FFF7C6BEBDE8F081000010B586B03E
S315080038C0044614216846FCF752FD2068B0F1804F83
S315080038D016D10C480021026842F001020260006815
S315080038E000F0010005904FF4004000900220CDE959
S315080038F001010120CDE9031069460348FEF72EFDB4
S3150800390006B010BD3038024000000240704770B55E
S31508003910044690F83C0000260D4601280FD00120E9
S3150800392084F83C006AB1042A1DD0082A2FD00C2A34
S315080039303FD00126002084F83C00304670BD0220A6
S3150800394070BD206804F0F6FB2068816941F0080123
S3150800395081612068816921F004018161206881699B
S315080039602A69114311E0206804F00CFC206881697B
S3150800397041F4006181612068816921F48061816177
S31508003980206881692A6941EA02218161D2E72068B3
S3150800399004F024FC2068C16941F00801C16120686F
S315080039A0C16921F00401C1612068C1692A6911430E
S315080039B011E0206804F03EFC2068C16941F400610A
S315080039C0C1612068C16921F48061C1612068C1694B
S315080039D02A6941EA0221C161ACE710B5040003D0A7
S315080039E094F83D0010B107E0012010BD002084F8CE
S315080039F03C00204600F01EF8022084F83D00211DF8
S31508003A00206804F037FB012084F8460084F83E005D
S31508003A1084F83F0084F8400084F8410084F84200A6
S31508003A2084F8430084F8440084F8450084F83D008F
S31508003A30002010BD08B50068B0F1804F08D10548D0
S31508003A40016841F001010160006800F00100009082
S31508003A5008BD0000403802407047000010B5044613
S31508003A60022249B104290ED0082913D094F841003E
S31508003A70012816D0012010BD94F83E000128F9D17E
S31508003A8084F83E200FE094F83F000128F2D184F82C
S31508003A903F2008E094F840000128EBD184F8402044
S31508003AA001E084F841200122206804F035FB124920
S31508003AB02068884203D1426C42F40042426420687E
S31508003AC088420ED0B0F1804F0BD00C49884208D0FE
S31508003AD00B49884205D00B49884202D00A498842D8
S31508003AE004D1816801F00701062903D0016841F075
S31508003AF001010160002010BD0000014000040040E3
S31508003B0000080040000C00400040014000680349DE
S31508003B10884201D1FEF72ABD7047000000480140DF
S31508003B207047704710B504460068406994F841101C
S31508003B30C0F3C010212911D180B12068143050E893
S31508003B40001F21F0800140E80012002AF5D1A06B81
S31508003B5008B1FEF724FA204605F00CF820684069FB
S31508003B6094F84210C0F38010222911D180B1206840
S31508003B70143050E8001F21F0400140E80012002AE6
S31508003B80F5D1E06B08B1FEF70AFA204604F0CBFF40
S31508003B90002010BD70470000F8B5016804460868A3
S31508003BA0CA684B6910F00F0F4FF0000559D003F0A3
S31508003BB0010602F49077374365D0C10705D0D105D1
S31508003BC003D5616C41F001016164410705D5D90748
S31508003BD003D0616C41F002016164810705D5D907FC
S31508003BE003D0616C41F004016164010707D502F056
S31508003BF02001314303D0616C41F008016164616CB6
S31508003C0000293AD0800604D5900602D5204604F04D
S31508003C10BFFF20684069616CC0F38010090700D4B3
S31508003C2060B3204604F07FFF20684069400621D52E
S31508003C302068143050E8001F21F0400140E80012C7
S31508003C40002AF5D1E06BA8B16E490165E06BFEF775
S31508003C50EFF9002811D0E06B016D01B0BDE8F04026
S31508003C60084783060FD593060DD52046BDE8F840CC
S31508003C7004F08EBF2046FFF78DFFF8BD2046FFF7FC
S31508003C8089FF6564F8BD266B2023012E7DD1C60603
S31508003C907BD5D60679D508684868009048694FF0FC
S31508003CA00206400641D5E16B086840680004000C2E
S31508003CB0E8D0A28D8242E5D9E085C869B0F5807F53
S31508003CC02DD020680C3050E8001F21F4807140E8A0
S31508003CD00012002AF5D12068143050E8001F21F0A0
S31508003CE0010140E80012002AF5D12068143050E896
S31508003CF0001F21F0400140E80012002AF5D184F89F
S31508003D004230256320680C3050E8001F21F010016E
S31508003D1040E80012002AF5D1E06BFEF740F9666329
S31508003D20A08DE18D401A81B22AE0A08DE18D401A5E
S31508003D3081B2E08D0028A5D00029A3D022680C32D4
S31508003D4052E8000F20F4907042E80007002FF5D1E2
S31508003D502068143050E8002F22F0010240E80027BE
S31508003D60002FF5D184F84230256320680C3050E8DE
S31508003D70002F22F0100240E80023002BF5D16663DD
S31508003D802046FFF7CEFEF8BDFFE705062BD515063C
S31508003D9029D594F841002128F5D1A068B0F5805FAF
S31508003DA001D12069B0B1206A411C216221680078DE
S31508003DB04860E08C401E0004000CE084E3D12068D3
S31508003DC0C16821F08001C1602068C16841F04001E6
S31508003DD0C160D8E7206A0088C0F308004860206AF6
S31508003DE0801C2062E5E74006CDD55006CBD5CA68CB
S31508003DF0204622F04002CA6084F8413000F0B7F944
S31508003E00C1E70000298A000870B5040004D094F8B8
S31508003E104100002510B106E0012070BD84F840502D
S31508003E20204600F023F8242084F841002068C16861
S31508003E3021F40051C160204604F00CFF2068016996
S31508003E4021F4904101612068416921F02A0141610C
S31508003E502068C16841F40051C1606564202084F877
S31508003E60410084F842006563002070BD2DE9F04FDB
S31508003E7087B0044614216846FCF779FA6A49DFF8E0
S31508003E80AC912068DFF8A4810025A9F114094FF048
S31508003E90020A4FF0030B884267D1D8F8001041F0A8
S31508003EA01001C8F80010D8F8000000F010000590BE
S31508003EB0D9F8001041F00101C9F80010D9F800003E
S31508003EC0029500F0010005904FF4C060CDE9000AA4
S31508003ED00720CDE903B056465F4669465448FEF7C3
S31508003EE03DFAC020CDE9000602950820CDE9037009
S31508003EF069465048FEF732FA504E4F4830604FF048
S31508003F000060C6E901054714C6E903577561B5613E
S31508003F10F561356230467562FEF76CF908B1FDF752
S31508003F2029FDE663B463454E434860363030306059
S31508003F304FF02060706006F10801402081E8A1007A
S31508003F407561B561F561356230467562FEF752F9FD
S31508003F5008B1FDF70FFDA663002205212520B463ED
S31508003F60FEF796FB2520FEF785FB35492068884233
S31508003F7057D1D8F8001041F02001C8F80010D8F839
S31508003F80000000F020000590D9F8001041F0040167
S31508003F90C9F80010D9F80000029500F00400059051
S31508003FA0C020CDE9000A0820CDE903B069462148BA
S31508003FB0FEF7D4F92048234E60384FF02068306069
S31508003FC0C6E901850715C6E903577561B561F56147
S31508003FD0356230467562FEF70DF908B1FDF7CAFC81
S31508003FE0E663B463174E144860361830E6E80208EC
S31508003FF04020A1C6134846F814596030B561F561EA
S3150800400035627562FEF7F6F808B1FDF7B3FCA663EC
S31508004010002205214720B463FEF73AFB4720FEF746
S3150800402029FB07B0BDE8F08F001001404438024074
S315080040300000024000080240886402407C4C0020D0
S3150800404000140140E84D002090F84230202B01D0A2
S315080040500220704721B11AB10023036304F080BE21
S315080040600120704710B500680949884207D10949F7
S315080040706422A1F58470FFF7E7FF07A003E00C4967
S31508004080884204D10BA0BDE8104005F0B3B810BDB6
S31508004090001001403C4D00205265636569766564F1
S315080040A02066726F6D205553415254310D0A000037
S315080040B00014014052656365697665642066726F0F
S315080040C06D205553415254360D0A000070472DE9AC
S315080040D0F843044690F84100984616460D462028AF
S315080040E002D00220BDE8F88385B17EB10020606465
S315080040F0212084F84100FEF733FAA6848146E68437
S31508004100A0682027B0F5805F02D003E00120E9E728
S31508004110206910B12E4600250EE000260CE080210D
S31508004120204604F065FEA8B9C6B116F8010B216849
S315080041304860E08C401EE084E08C4B464FF000025D
S31508004140CDF800800028EAD14FF04001204604F05F
S315080041504FFE40B184F841700320C3E735F8020BDF
S31508004160C0F30800E3E784F841700020BAE7704717
S315080041701CB5064806A190F88920684605F04AF855
S315080041800448694680681BF08FFF1CBDCC020020DE
S3150800419025640000E005002008B53A4C2BF02CFAFF
S315080041A000F0EAFD01F002F8022505E0A06A804762
S315080041B06D1E2077EDB202D3207F0028F6D10225A6
S315080041C006E0206C80476D1E84F83C00EDB203D3F0
S315080041D094F83C000028F4D1022506E0206D8047BB
S315080041E06D1E84F84800EDB203D394F84800002801
S315080041F0F4D1022506E0A06F80476D1E84F86000A2
S31508004200EDB203D394F860000028F4D1022507E044
S31508004210D4F88C0080476D1E84F88800EDB204D36C
S3150800422094F888000028F3D102E094F8880010B9C1
S31508004230D4F890008047FDF75FF8FDF7C3F800F063
S3150800424097FE00204FF48C73F0220146009000F090
S315080042500DFE0A200AF092FE322000F05FFF1BF0E6
S3150800426057F820F005FA20F027FA2AF08FFE2BF0EF
S315080042707BFF00202BF0F2F84FF4FA7024F072FD61
S315080042808CE70000CC0200201CB50D4C94F83C00CD
S3150800429008B101201CBD01A96846FCF785FD9DED06
S315080042A0010ABCEEC00A10EE100A04F83D0F9DED97
S315080042B0000ABCEEC00A10EE100A607000201CBD91
S315080042C0CC020020FCF70EBD10B5FCF73FFE51EC02
S315080042D0100BFCF760FA0249A1F84A0010BD00006D
S315080042E0CC02002003F006B90249012081F84C00EF
S315080042F003F0F0B8CC0200200249002081F84C00F7
S3150800430003F0ECB8CC02002010B5012901D002292F
S3150800431003D1401E0C31C0B2C9B21A24491C11FB84
S3150800432004F10A24B1FBF4F100EB900000EB9300D2
S3150800433008441044594200EB4100401E00E0C01DED
S315080043400028FCDB072190FBF1F201FB120000B903
S315080043500720C0B210BD00001CB5154A911E881E64
S3150800436000F0B6FF124A921D911E881E00F0C3FF88
S315080043700F4C6C3CB4F97210B4F97000CDE9000129
S31508004380B4F96E30B4F96C20B4F96A10B4F968005F
S315080043906434FCF717FEBDEEC00A10EE100A44F8A6
S315080043A06409002802DA00F5B47060661CBD0000D6
S315080043B03803002000F022BF0249012081F874006A
S315080043C000F070BFCC0200200249002081F874007A
S315080043D000F073BFCC02002010B586B004001FD0D1
S315080043E0002269460F48FEF7D7FD002205A90D48A9
S315080043F0FEF7B0FD9DF81700E0709DF81510617086
S315080044009DF81620A27014232BF0D8F920709DF879
S31508004410000020719DF8010060719DF80200A071EE
S3150800442006B010BDB04A00200149481E00F01EB96A
S315080044305603002000F044B90249012081F88B0098
S3150800444000F058B9CC0200200249002081F88B0000
S3150800445000F058B9CC02002010B500F089FD0A20FA
S315080044600AF08CFD02480078BDE8104000F056BE00
S315080044700604002000F052BE10B500F0C3FC00226E
S31508004480BDE8104010210148FEF765B80004024057
S3150800449008B5002000900448007F10B968460AF065
S315080044A0E4FE009808BD0000CC02002010B580216B
S315080044B06B2001F089F964200AF060FD00216B2069
S315080044C001F082F9BDE8104023F06CBD08B5002064
S315080044D000900448007F10B968460AF0C6FE0098A6
S315080044E008BD0000CC0200200249002081F8250002
S315080044F070470000CC0200200249012081F82500FF
S3150800450070470000CC02002002F0E6BD02F0FEBDB6
S31508004510FEE710B51AF0AEFD1AF0B2FD012803D178
S31508004520BDE8104002F07CBE10BD000070B5464CD8
S3150800453020691CF0FDFD8721E0641FF0CFFF3B21B9
S31508004540E06C1FF017FD6FF00E01E06C1FF0DDFF49
S315080045501F21E06C1FF0F0FF0821E06C1FF0C7FC7C
S3150800456004F1B80021F092F9384815F09EFE01468C
S3150800457004F1B80021F0A1FA002104F1B80021F0F5
S31508004580BBFA1E2104F1B80021F0B9FB002204F1A0
S31508004590B801E06C1CF0B0F91021E06C1CF036FD97
S315080045A0E06C1AF017FF42F2D175294620651FF014
S315080045B095FF2946206D1FF0DDFC0721206D1FF0B1
S315080045C096FC23A1206D1BF06FFD6FF07F463046E9
S315080045D015F06BFE01460022206D1FF04EFF0022EB
S315080045E01C49206D1FF056FFE06C1AF0F3FE2946B1
S315080045F060651FF073FF2946606D1FF0BBFC6FF006
S315080046001D01606D1FF081FF0821606D1FF06FFCB2
S3150800461062792AB110A1114804F0FCFD0F4900E0A7
S315080046200FA1606D1BF040FD304615F03EFE0146B9
S315080046300022606D1FF021FF606DBDE8704000220A
S3150800464009491FF027BF000000040020A747EC0017
S31508004650EE9B8800F00904082532640068C401202E
S31508004660EFBC8DEFBC8D0000A4AF030870B50D46F6
S31508004670064609F011FA09F08BF80D4C0D49A068A9
S31508004680884202DD9FED0C0B03E0FCF79DF841EC38
S31508004690100B51EC100BFCF7DBF8A060207930709A
S315080046A094ED020ABCEEC00A10EE100A287070BD1E
S315080046B01C000020E1FAC7428FC2F5285CFF58406B
S315080046C00A4808B5016841F001010160006800F078
S315080046D001000090064800F059F900F05DFF08B1A6
S315080046E0012008BD00F0ACFE002008BD30380240AD
S315080046F02800002080220921014800F059BF000047
S315080047002800002003220921014800F051BF0000BB
S315080047102800002030B585B0FDF7A0FB8068364933
S31508004720884267D1354D03A829688847324C9DF8D9
S315080047301020103C6078824208D0627030A168462A
S3150800474004F068FD6946206B1BF0AEFC9DF811204D
S31508004750A078824208D0A27029A1684604F05AFDC2
S315080047606946A06B1BF0A0FC9DF80E20E0788242FB
S315080047700BD0E2709DF80C00207121A1684604F068
S3150800478049FD6946A06C1BF08FFC95F93D00217820
S3150800479088420AD095F83D2022701AA1684604F08E
S315080047A039FD6946606A1BF07FFC6078801F0C281B
S315080047B001D815A100E015A1206A1BF075FC95F833
S315080047C089206079824208D062710EA1684604F099
S315080047D021FD6946606D1BF067FC2A6AE068824223
S315080047E008D008A16846E26004F014FD6946606EC8
S315080047F01BF05AFC05B030BD10040020CC02002086
S315080048002532640025640000EE98AE00EE9B820017
S315080048102DE9F041554C064620681AF0DBFD42F2B8
S31508004820D175294620621FF059FE2946206A1FF0D5
S31508004830A1FB3221206A1FF068FE6FF05E01206A34
S315080048401FF07AFE0921206A1FF051FB48A1206A51
S315080048501BF02AFC474815F0B0FD01460022206AE5
S315080048601FF00BFE00224449206A1FF013FE206841
S3150800487014F096FB414FE061002217F83E1F14F032
S3150800488082FC1421E0691FF029FE9621E0691FF0D9
S3150800489071FB3221E0691FF038FE0021E0691FF044
S315080048A04BFE0921E0691FF022FB20681AF092FDF1
S315080048B0294660611FF012FE294660691FF05AFBFF
S315080048C0322160691FF021FE642160691FF034FE01
S315080048D0092160691FF00BFB3A7829A1304604F0DC
S315080048E099FC314660691BF0DFFB002225496069A7
S315080048F01FF0D0FD002015F060FD0146002260691A
S315080049001FF0BBFD20681AF065FD2946A0611FF05F
S31508004910E5FD2946A0691FF02DFB5021A0691FF06F
S31508004920F4FD6421A0691FF007FE0921A0691FF0A4
S31508004930DEFA15A1A0691BF0B7FB6FF07F4015F0F2
S315080049403CFD01460022A0691FF097FD00220D4993
S31508004950A0691FF09FFD002015F02FFD0146A069F4
S31508004960BDE8F04100221FF088BD0000E4060020E3
S31508004970EE989C00FF961400A8050408CC020020B7
S315080049802564000084B803082500000010B586B029
S31508004990044614216846FBF7EAFC208900900120AA
S315080049A0019002900220039069462068FDF7D6FC24
S315080049B06089009069466068FDF7D0FC06B010BDB6
S315080049C02DE9F0411D4617460C468046069E00F026
S315080049D0EDF86006010E404600F0A4F8404600F0E7
S315080049E023F928B1404600F000F90120BDE8F0811E
S315080049F03946404600F096F8404600F015F940461C
S31508004A0000F0D4F8012000EB4400C1B2404600F0A3
S31508004A1089F8404600F008F900246F1E0AE000BF36
S31508004A2000F040F83055BC4202DA404600F061F822
S31508004A30641CE4B2AC424046F2D300F09FF840460C
S31508004A4000F0D3F80020D1E770B516460C460546A7
S31508004A5000F0ACF86006010E284600F063F8284618
S31508004A6000F0E2F83146284600F05CF8284600F0E7
S31508004A70DBF8284600F09AF8012000EB4400C1B2A2
S31508004A80284600F04FF8284600F0CEF8284600F0F1
S31508004A9009F80446284600F071F8284600F0A5F8FB
S31508004AA0204670BD70B506460824002502F0FCFBBA
S31508004AB013E06806050E0021304602F0E3FB0220EB
S31508004AC00AF069FA0121304602F0DCFB01200AF0FF
S31508004AD062FA304602F0DFFB0543641EE4B2E8D210
S31508004AE00021304602F0CEFB304602F0FBFB28469A
S31508004AF070BD10B50446002102F0EBFB01200AF058
S31508004B004AFA0121204602F0BDFB01200AF043FAC9
S31508004B100021204602F0B6FBBDE8104001200AF04D
S31508004B203ABA000070B50C460646082519E000BFDB
S31508004B3002F0A8FB02200AF02EFA04F080013046A3
S31508004B4002F0C7FB01200AF026FA6006040E0120CF
S31508004B500AF021FA0121304602F094FB01200AF0FE
S31508004B601AFA6D1EEDB24FF000013046E0D202F09F
S31508004B7089FBBDE8704002200AF00DBA10B504465C
S31508004B80012102F0A6FB01200AF005FA01212046C0
S31508004B9002F078FB01200AF0FEF90021204602F017
S31508004BA071FBBDE8104002200AF0F5B910B50446BD
S31508004BB0012102F08EFB02200AF0EDF901212046C0
S31508004BC002F060FB01200AF0E6F90021204602F017
S31508004BD080FB01200AF0DFF90021204602F052FB93
S31508004BE0BDE8104001200AF0D6B910B504460021E8
S31508004BF002F048FB02200AF0CEF90021204602F016
S31508004C0068FB01200AF0C7F90121204602F03AFBA9
S31508004C1001200AF0C0F90121204602F05AFBBDE83E
S31508004C20104001200AF0B7B970B50546052402F010
S31508004C303BFB0121284602F025FB05E0641EA4B2D1
S31508004C4001200AF0A8F984B1284602F024FB0028BE
S31508004C50F4D1284602F046FB0021284602F012FB52
S31508004C6002200AF098F9002070BD284602F03AFBA7
S31508004C702846FFF7BAFF012070BD2DE9F0411D4611
S31508004C8016460C460746FFF791FF6006010E3846A2
S31508004C90FFF748FF3846FFF7C7FF012816D0314609
S31508004CA03846FFF73FFF3846FFF7BEFF2946384626
S31508004CB0FFF738FF3846FFF7B7FF3846FFF795FF87
S31508004CC001200AF068F90020BDE8F0813846FFF7B0
S31508004CD08CFF0120F8E700002DE9F0410025124C71
S31508004CE0124F012608B1267001E0207820B1012173
S31508004CF03846FDF723FC58B1032024F033F8012188
S31508004D003846FDF71BFC00B126702846BDE8F08141
S31508004D10032024F027F801213846FDF70FFC002868
S31508004D20F3D101252070F0E70D00002000000240B5
S31508004D301CB500200E4E0F4D8DF800008DF80400AE
S31508004D4001240020FFF7C8FF68B18DF80040012351
S31508004D5000226946306824F09FF80123002201A941
S31508004D60286824F099F8012023F0FCFFE9E7000001
S31508004D705C0900206809002000B587B01421684640
S31508004D80FBF7F5FA0E48016841F001010160006879
S31508004D904FF4041100F0010005900120CDE900014F
S31508004DA0029069460748FDF7D9FA002211460620FF
S31508004DB0FDF76EFC0620FDF75DFC07B000BD0000A0
S31508004DC030380240000002402DE9F04104461D46F5
S31508004DD016460F462A2000F0CBF9204600F0AEF919
S31508004DE0304600F0ABF92B2000F0C2F9384600F047
S31508004DF0A5F9284600F0A2F9BDE8F0412C2000F0FC
S31508004E00B7B90000024900200968486370470000E6
S31508004E10EC4B002070B55D1A141A641C6D1C143313
S31508004E2014316C439BB289B2049EFFF7CDFF0D4D3A
S31508004E304FF40060E8602868016841F40061016089
S31508004E40A2B231462846FEF773FB07480068416858
S31508004E500029FCD10020E8602868016821F4006177
S31508004E60016070BDD04A0020284B00202DE9F0478C
S31508004E7080461F4603F1130083B21646501E82B2BF
S31508004E800C4601F1140081B24046DDF82090FFF788
S31508004E909BFF0AE0454604E0484600F04FF96D1CC2
S31508004EA0ADB2B542F8D3641CA4B2BC42F2D3BDE895
S31508004EB0F0870000F0B587B014216846FBF757FA6B
S31508004EC02748016841F004010160016801F0040106
S31508004ED00591016841F002010160016801F00201D3
S31508004EE00591016841F008010160016801F00801B7
S31508004EF00591016841F0010101600068012400F094
S31508004F00010005901020CDE90004164E03256946D8
S31508004F1003953046FDF722FA012210213046FDF7A7
S31508004F201AFB2603104FCDE90064694638460395F7
S31508004F30FDF714FA012231463846FDF70CFB04202A
S31508004F40CDE90004094C694603952046FDF706FAA3
S31508004F50012204212046FDF7FEFA07B0F0BD000045
S31508004F60303802400004024000080240000C0240AB
S31508004F7010B5FFF79FFF002204216648FDF7EBFAFC
S31508004F80654C002210212046FDF7E5FA642009F059
S31508004F90F5FF012210212046FDF7DDFA642009F00D
S31508004FA0EDFF112000F0E4F8782009F0E7FF36203D
S31508004FB000F0DEF8C02000F0D1F83A2000F0D8F86A
S31508004FC0052000F0CBF8B22000F0D2F80C2000F053
S31508004FD0C5F80C2000F0C2F8002000F0BFF8332016
S31508004FE000F0BCF8332000F0B9F8B72000F0C0F89C
S31508004FF0352000F0B3F8BB2000F0BAF8192000F00D
S31508005000ADF8C02000F0B4F82C2000F0A7F8C220B4
S3150800501000F0AEF8012000F0A1F8C32000F0A8F8CF
S31508005020122000F09BF8C42000F0A2F8202000F01F
S3150800503095F8C62000F09CF80F2000F08FF8D020D5
S3150800504000F096F8A42000F089F8A12000F086F870
S31508005050E02000F08DF8D02000F080F8042000F061
S315080050607DF80D2000F07AF8112000F077F813206B
S3150800507000F074F82B2000F071F83F2000F06EF86D
S31508005080542000F06BF84C2000F068F8182000F067
S3150800509065F80D2000F062F80B2000F05FF81F207D
S315080050A000F05CF8232000F059F8E12000F060F8E1
S315080050B0D02000F053F8042000F050F80C2000F03F
S315080050C04DF8112000F04AF8132000F047F82C207C
S315080050D000F044F83F2000F041F8442000F03EF884
S315080050E0512000F03BF82F2000F038F81F2000F080
S315080050F035F81F2000F032F8202000F02FF8232082
S3150800510000F02CF8212000F033F8BDE810402920E3
S3150800511000F02EB8000C024000040240411F5F292F
S3150800512009D84FF4967110FB01F06421B0FBF1F039
S315080051300149096848637047EC4B002008B5010A25
S315080051408DF800108DF801000123022269460248F5
S31508005150FEF73AF908BD0000D04A002001B5012340
S315080051601A4669460148FEF72FF908BDD04A0020BD
S3150800517070B5094D06464FF480540022214628464C
S31508005180FDF7E9F93046FFF7E9FF21462846BDE86D
S3150800519070400122FDF7DFB900080240012208210C
S315080051A00148FDF7D8B900000000024000B587B0F5
S315080051B014216846FBF7DBF80A480021026842F02A
S315080051C001020260006800F00100059008200090C6
S315080051D00120CDE90101039169460348FDF7BEF8B0
S315080051E007B000BD30380240000002400022082106
S315080051F00148FDF7B0B900000000024038B527485D
S315080052000024016841F001010160006800F0010016
S3150800521000902348FFF7BAFB1021232000F0A6F8D8
S31508005220012009F0ABFE2F21202000F09FF8012075
S3150800523009F0A4FE202000F08DF82F2807D00A20B8
S3150800524009F09CFE641CE4B2032CE5D324E001209B
S3150800525009F094FE00241021002000F087F80120B0
S3150800526009F08CFE8021012000F080F8012009F069
S3150800527085FE0021022000F079F8012009F07EFE63
S31508005280022000F067F8002807D00A2009F076FE09
S31508005290641CE4B2032CDED3012038BD303802404A
S315080052A01000002010B50321022000F05FF80F213E
S315080052B0BDE81040202000F059B810B500210220A2
S315080052C000F054F82F21BDE81040202000F04EB819
S315080052D07CB514460D4606466A460621282000F087
S315080052E01DF8BDF800003080BDF802002880BDF822
S315080052F0040020807CBD7CB50D4604466A4606211E
S31508005300032000F00BF8BDF800002080BDF802006D
S315080053102880BDF8040020807CBD00002DE9F041FE
S3150800532090460E460546192801D9182700E01E277B
S31508005330002409E02819C2B239460548FFF784FB5C
S3150800534008F80400641CE4B2B442F3D3BDE8F08163
S3150800535010000020192801D9182100E01E21024654
S315080053600148FFF771BB0000100000200B46192802
S3150800537001D9182100E01E2102460148FFF77DBC2D
S315080053801000002008B500200A4C8DF800004FF4E4
S315080053907A75002015F00EFBA84205D200231A469E
S315080053A06946606B23F078FD21F046FC012023F066
S315080053B0D9FCEEE73409002038B50E4C0EA1684634
S315080053C0627803F027FF6946206A1AF06DFEA27814
S315080053D009A1684603F01EFF6946A06A1AF064FE32
S315080053E0E27805A1684603F015FF6946206B1AF0B6
S315080053F05BFE38BD0009002025303264000000003D
S3150800540038B50E490446087E28B101EB800050F8ED
S31508005410040C406880472146084802F05EFD0128D2
S315080054200AD02068804701200090A06800230A223D
S31508005430006806211FF004FE38BD00004CC4012098
S3150800544010B5C02202211B4800F0B2F80022032141
S31508005450184800F0ADF800220421164800F0A8F814
S3150800546000220521134800F0A3F80022062111485E
S3150800547000F09EF80F2208210E4800F099F8032242
S3150800548009210C4800F094F827220A21094800F05F
S315080054908FF832220C21074800F08AF832220D21B3
S315080054A0044800F085F87F22BDE810401021014825
S315080054B000F07EB8380000202DE9F0410446154674
S315080054C00E461F48FFF772FBAE211D48FFF72AFB61
S315080054D01B48FFF7A9FB28B11948FFF786FB0120EF
S315080054E0BDE8F08121461648FFF71CFB1448FFF774
S315080054F09BFB1348FFF75AFBAF211148FFF712FB36
S315080055000F48FFF791FB0024771E12E00C48BC42B7
