:03000000020A8E63
:0C0A8E00787FE4F6D8FD75812F0208DEA9
:10067C00AC23AD24EC1202A67B627A10798378410C
:06068C001202041202DF5D
:10069200AB07AA067C277D1012041AEF2430F52638
:1006A2007C277D10AF03AE0212041AAA04AB057CAC
:1006B200037DE8AF03AE0212041AEF2430F5217C69
:1006C200037DE8AF03AE0212041AAA04AB057C0054
:1006D2007D64AF03AE0212041AEF2430F5227C00CF
:1006E2007D64AF03AE0212041AAA04AB057C007D3E
:1006F2000AAF03AE0212041AEF2430F5257C007D06
:0E0702000AAF03AE0212041AED2430F52722CE
:10096800E4FDFCC3ED9FEC9E5015E4FBFA0BBB00C5
:0F097800010AEB64794A70F50DBD00010C80E4B3
:01098700224D
:100A0C007580FFC2A0D2A100D2A20000E58020E731
:040A1C00FBC2A22255
:1009F700ED6003120A0CC2A0C2A1008F8000D2A230
:050A07000000C2A22264
:100A2000120A0CD2A0C2A1008F8000D2A20000C284
:020A3000A22200
:1009C5007D017F381209F77F081209F77F011209A7
:0B09D500F77F061209F77F0C0209F7FC
:10098800AE07AC0353050153060FED600343064061
:0F099800430680AF06E4FD1209F7AF04020A2000
:100A440000000000000000000000000000000000A2
:010A5400227F
:0E0A55007F307E02EF1FAC0670011E4C70F663
:010A63002270
:0F0A6400D291D290120A44C291120A44C2902237
:0C0A9A00C291D290120A44D291020A4488
:0E0A7300A2009291D290120A44C290020A444C
:0D0A8100D290120A44A291C290120A44229F
:10091800AC07120A6412092BAF0512092B120A64DC
:03092800EC04FFDD
:10092B00E4FEEF25E0FF9291D290120A44C290129E
:09093B000A440EBE08EC020A8118
:1009A700E4FFD291FEEF25E0FFD290120A44A29114
:0D09B700E4334207C290120A440EBE08E865
:0109C4002210
:1009E000AE07AC03120A6412092BAF0512092BAF34
:0709F0000412092B020A9A10
:030A32000D7F3005
:0E0A35001209181209A7D200120A73120A9AA7
:010A43002290
:10094400120918E4FD1209A774282DF8A607BD059D
:1009540004D2008002C200120A730DBD06E7120A17
:040964009A020A5594
:090AA6007B277D207F300209E06E
:090AAF00E4FB7D027F3C0209E03A
:10086C007D287F30120A358F28120A328F29EFFE2D
:10087C007C00E42528F524EC3EF523C364809480A9
:10088C00500FC3E49524F524E49523F5237B2D80A8
:10089C00027B20E4FD7F0212098812067C7B58E45F
:1008AC00FDFF1209887B3AE4FD7F01120988AB2118
:1008BC00E4FD7F031209887B2EE4FD7F0412098876
:1008CC00AB22E4FD7F051209887B67E4FD7F0602FD
:0208DC00098889
:100786007D2A7F30120A358F2A120A328F2BEFFE0E
:100796007C00E4252AF524EC3EF523C3648094808E
:1007A600500FC3E49524F524E49523F5237B2D808F
:1007B600027B207D017F0212098812067C7B597D0F
:1007C60001E4FF1209887B3A7D017F01120988AB9B
:1007D600217D017F031209887B2E7D017F0412098A
:1007E60088AB227D017F051209887B677D017F0624
:0307F6000209886D
:100710007D2C7F30120A358F2C0D7F30120A358FD9
:100720002DEFFE7C00E4252CF524EC3EF523C3647C
:10073000809480500FC3E49524F524E49523F52399
:100740007B2D80027B207D017F0B12098812067CA5
:100750007B5A7D017F091209887B3A7D017F0A124D
:100760000988AB217D017F0C1209887B2E7D017FDA
:100770000D120988AB227D017F0E1209887B677DEF
:06078000017F0F02098851
:1005C500E528F508E529F509E52AFEE52BFDAC0644
:1005D500E52CF50AE52DF50BAE04AF05EC1202A6E8
:1005E500C004C005C006C007AC08AD09EC1202A6E0
:1005F5008F178E168D158C14D007D006D005D00414
:100605001207F97BE07A2E796578421200FBE4FB4C
:10061500FA7934784312000A8F0F8E0E8D0D8C0CEB
:10062500E4FBFA792078411200FB8F0F8E0E8D0DB9
:100635008C0C1202DF1206927B41E4FD7F09120940
:10064500887B3AE4FD7F0A120988AB21E4FD7F0B24
:10065500120988AB22E4FD7F0C120988AB25E4FD65
:100665007F0D1209887B2EE4FD7F0E120988AB27CA
:07067500E4FD7F0F0209887C
:1008DE007F327E001209681209C5120AA6120AAFEB
:1008EE007F0A7E0012096812086C12078612071022
:1008FE007F0A7E001209687D037F3C1209441205AF
:0A090E00C57F647E0012096880D6E0
:1000030002034BE86480F8E933E83360110460F0DD
:10001300ED33EC337009E8FCE9FDEAFEEBFF220463
:1000230060DED3EB9FEA9EE99DE8C2E78CF0C2F75E
:1000330095F0400CE8CCF8E9CDF9EACEFAEBCFFB2A
:1000430012031685D0F05804700320D5B3E804706A
:10005300075002B2D502035592D5EC0460F7E4CC05
:10006300C0E0C398F8603B94186008400DD0E0FBF3
:1000730002032DE4FBFAC9FC8028E830E406E4C956
:10008300FBE4CAFCE830E305E4C9CACBFCE8540747
:100093006010F8C3E913F9EA13FAEB13FBEC13FC52
:1000A300D8F130F52FC3E49CFCEF9BFFEE9AFEEDF5
:1000B30099FDD0E0FBEF4E4D4C701222DB0302039F
:1000C30052EC2CFCEF33FFEE33FEED33FDED30E766
:1000D300EB02032DEF2BFFEE3AFEED39FDD0E0FBF3
:1000E30050130BBB0003020355ED13FDEE13FEEF9C
:0800F30013FFEC13FC02032DC6
:1000FB00EC4D6011E8497017ED33EC3304600DE4FF
:10010B00FCFFFEFD22E933E8330470F802034B12C7
:10011B00031658046009E4CC2481500628500902C8
:10012B000355284003020352C0E0EB4A7044B980E8
:10013B0006D0E0FB020341EF4E701CBD8008EBFFC5
:10014B00EAFEE9FD80EBE98DF0A4FEE5F00201E4A7
:10015B00E9CDF9EAFEEBFFEF89F0A4FCE5F0CE89DF
:10016B00F0A42EFFE435F0CD89F0A42DFEE435F09C
:10017B008067EF4E7005BD80D780C3EF8BF0A4ACCA
:10018B00F0EE8BF0A42CFCE435F0F8EF8AF0A42C05
:10019B00E5F038FCE433CB8DF0A42CFCE5F03BF818
:1001AB00EE8AF0A42CFCE5F038F8E433CF89F0A408
:1001BB002CFCE5F038CF3400CE89F0A42FFFE5F00E
:1001CB003EFEE433C98DF0A42EFEE5F039CD8AF066
:1001DB00A42FFFE5F03EFEE43DFD33D0E0FB5007DE
:1001EB000BBB000F020355EC2CFCEF33FFEE33FE81
:0601FB00ED33FD02032DAF
:10020100020355EC5D046005E85904700302034BD9
:10021100120316580460F6EC4860F2EC7004FDFE1F
:10022100FF22C860DB2481C85009C39860025006D0
:100231000203529850CAF582E9294B4A7005AB82F4
:1002410002034175F0007C1A7880C3EF9BEE9AEDB2
:1002510099400DC3EF9BFFEE9AFEED99FDE842F048
:10026100DC23ACF0D0E0FFD0E0FED0E0FDAB82209B
:10027100E7101BEB60BAEC2CFCEF33FFEE33FEED25
:1002810033FD02032DE803F830E705C0F075F000F7
:10029100EF2FFFEE33FEED33FD40B830E7C280AA09
:1002A10075F020800E75F010800575F0087D007ED8
:1002B100007F003392D530D50312046FEC33401028
:1002C100EF33FFEE33FEED33FDEC33FCD5F0ED22E1
:0E02D100E5F0247EA2D513CC92E7CDCEFF221D
:1002DF00EDD2E7CD33EC3392D524814006E4FFFE17
:1002EF00FDFC22FCE4CFCECDCC24E0501174FF8076
:1002FF00EDC3CC13CCCD13CDCE13CECF13CF047013
:07030F00F030D5DE02046F9F
:1007F9008F138E128D118C10AB17AA16A915A81478
:100809001202041204BD8F138E128D118C10E5147F
:1008190030E747ECC0E0EDC0E0EEC0E0EFC0E0E457
:10082900FFFEFDFCAB13AA12A911A8101203607BED
:10083900DB600250087A0F7949784080067A0F798F
:100849004978C0D0E0FFD0E0FED0E0FDD0E0FC1256
:10085900000A8F138E128D118C10AF13AE12AD11C9
:03086900AC1022AE
:10031600E9D2E7C933E833F892D5EDD2E7CD33EC2D
:0703260033FC5002B2D522A6
:10032D00EC30E7100FBF000C0EBE00080DBD000431
:10033D000BEB6014A2D5EB13FCED92E7FD2274FFDD
:10034D00FCFDFEFF22E480F8A2D574FF13FC7D8036
:03035D00E480EF4A
:1003600074F8CC6480CCC86480C8F582046043C350
:10037000EB9FF5F0EA9E42F0E99D42F0E89C45F0E3
:1003800060305018E5825FFFE582F42B5582FB5008
:10039000210ABA001D09B90019088016E5825BFB25
:1003A000E582F42F5582FF50090EBE00050DBD00F9
:1003B000010CC3EB9FF5F0EA9E42F0E99D42F0E8A4
:0D03C0009C45F06007CC4820E701B3EC221B
:10049D00BE1249253E4CCCCDBEAAAAAB3F80000072
:1004AD003E7ADBB03EED63383F24BC7D3F490FDB28
:1004BD00ED33ECC2E7CC339200B4FF13ED547F6003
:1004CD000302034B7FDB7E0F7DC97C3F0205B8C263
:1004DD0001C3947F401E7007EDD2E794904015EF55
:1004ED00FBEEFAEDF9ECF87F007E007D807C3F128B
:1004FD000204D201ED33EC33248430E705E4C0E08F
:10050D00806D04FAEDD2E754F0C333DAFD540734AD
:10051D00002323C0E0CCC0E0F8EDC0E0F9EEC0E070
:10052D00FAEFC0E0FBE41202ABEC24FEFC8C188D5C
:10053D00198E1A8F1B1200FB7B007A007980783F91
:10054D0012000AECC518B2E7FCEDC519FDEEC51A8F
:10055D00FEEFC51BFFD0E0FBD0E0FAD0E0F9D0E014
:10056D00F812000AA818A919AA1AAB1B1202048CBA
:10057D00188D198E1A8F1B90049D74031203CDA82C
:10058D0018A919AA1AAB1B1200FBD0E0600F24A901
:10059D00F582E43404F58312048D12000A30010B48
:1005AD007BDB7A0F79C978BF12000AED33EC33602B
:0805BD0006ECA20092E7FC220B
:1003CD00C0E0EFFBEEFAEDF9ECF81200FBD0E0F532
:1003DD00F0EFFBEEFAEDF9ECF812047DA3A3A3A365
:1003ED00E8C0E0E9C0E0EAC0E0EBC0E0C0F0120018
:1003FD00FB12048DA3A3A3A312000AD0F0D0E0FB3F
:0D040D00D0E0FAD0E0F9D0E0F8D5F0D4222C
:10041A00BC000BBE0029EF8DF084FFADF022E4CCC6
:10042A00F875F008EF2FFFEE33FEEC33FCEE9DEC8F
:10043A00984005FCEE9DFE0FD5F0E9E4CEFD22EDD5
:10044A00F8F5F0EE8420D21CFEADF075F008EF2F1F
:10045A00FFED33FD4007985006D5F0F222C398FD10
:05046A000FD5F0EA22AD
:0E046F00C3E49FFFE49EFEE49DFDE49CFC229E
:10047D00E493FC740193FD740293FE740393FF22C5
:10048D00E493F8740193F9740293FA740393FB22C5
:00000001FF
